:03000000020422D5
:0C042200787FE4F6D8FD7581490204697A
:10038C00D400060001D8F1270F00000BFF019AD40E
:10039C00005B00010000006400000DFF019AD40016
:1003AC004F00010000006400000FFF019AD40066AA
:1003BC00000100000064000011FF019AD4006D00E0
:1003CC000100000064000013FF019AD4007D0001BD
:1003DC0000000064000015FF019AD4000700010022
:1003EC00000064000017FF019AD4007F0001000098
:1003FC000064000019FF019AD4006F000100000096
:10040C006400001BFF019A000000000000000000C7
:06041C00000000000000DA
:10075700758911C28C758CFFE4F58AD2A9D28CD227
:02076700AF22BF
:1002EF001207577BFF7A03798C120669E54954018F
:1002FF00602FE54954FEF549120696050AE50AD323
:10030F00940A4009E4F50AE5494402F5490509E56F
:10031F0009D3943240D6E4F509E5494404F5498000
:10032F00CBAF49EFC3135401603BE54954FDF54989
:10033F0075A0FF20A005750824802320A10575084E
:10034F0021801B20A205750825801320A3057508A1
:10035F0022800B20A4057508238003E4F508AF085D
:10036F001206308087AF49EF131354017003020256
:0D037F00FBE54954FBF5491207690202FB3A
:03000B00020742A7
:10074200C0E0C28C758CFF758A00D28CE5494401E9
:05075200F549D0E03282
:01000A0022D3
:0907B300AB20AA21A9220206696B
:1005A900E54614601014601214601414601C146081
:1005B9002724057020754602801E7546038019752B
:1005C9004604754700754814800EE548454770088C
:1005D9007546058003754601E54845476008E548C5
:0705E90015487002154722BE
:10070800E546600B147005E4F5468003754601E57F
:0E0718004845476008E548154870021547221D
:0A079F000001000A006403E82710BF
:10066900E4F51F8B208A2189228B238A248925F589
:100679002BF52C7BFF7A057931120779AB26AA274E
:0D068900A9287D011206E412078602000A6E
:1005F000AB23AA24A9259000071200E6FFAEF090D5
:1006000000051200E6FDACF0D3E52A9FEE6480F809
:10061000E52964809840058E298F2A22C3E52A9D0A
:0F062000EC6480F8E52964809850048C298D2AB9
:01062F0022A8
:0D0779008B268A2789288B438A44894522D4
:07000300752C01E4F52B222E
:100630008F36E536700512070880031205A9E546D6
:10064000B4020FAB26AA27A928AD361206E4E4F5BA
:100650000922E546B40511E5366421600BAB26AAF4
:0906600027A928AD361206E42298
:10072600E4FFAB23AA24A9258F8275830012002734
:0B073600FE742E2FF8A6060FBF04E78C
:010741002295
:0404AE008F378D38BF
:1004B200E4F53E7C007D0AAF03AE0212006674A929
:1004C2002DF58274073CF583E493FFC37404953ED3
:1004D2002439F8A6077C007D0AAF03AE021200663B
:1004E200AA06AB07053EE53EB405C8E4F53EC37473
:1004F200059538FFE53EC39F50127439253EF8E654
:10050200B43F09E4F6053EE53EB405E2E4F53EC338
:100512007404953E2439F8E6FFE53EFDE537C39DB8
:0E052200FD74312DF8A607053EE53EB404E158
:0105300022A8
:10076900E52C600BAB26AA27A9287D061206E422F0
:100531001207C5EF24F9604C14605124E76051247F
:10054100FD60411460462424705AE51F75F00FA424
:10055100AB202522F9E52135F0FA8B23F5248925F5
:1005610090000C12013DE94A70030207B3E4F52C37
:10057100AB23AA24A92590000C12013D8B438A4488
:100581008945801BE51F6002151F8013051F800F21
:10059100AB23AA24A92590000C12013D1207797FF3
:0805A1000102079312078622F4
:1006BE001207C5EF24DF600C242070167F0212078C
:1006CE00930200037BFF7A0579311207797F0102CD
:0606DE00079312078622BB
:10019A001207C58F36EF24FE606C24FC700302023E
:1001AA00BF24E5606F1470030202A71470030202F1
:1001BA00B414700302025E14700302027D242460E8
:1001CA00030202E3AB23AA24A92590000412002704
:1001DA004401601090000912013D1200BBF52A8506
:1001EA00F0298014AB23AA24A92590000912013D05
:1001FA0012000E752900F52A1205F07BFF7A06799E
:10020A00BE7D010202EB120726AB2AAA297D017FD5
:10021A00040204AE1205F0AB23AA24A92590000417
:10022A001200274401601090000912013DE529855A
:10023A002AF012011E8012AF2AAB23AA24A9259004
:10024A00000912013DEF1200547BFF7A0679BE7D48
:10025A00210202EB75F002E52BA4249FF582E5F05A
:10026A003407F583E493FE740193252AF52AEE35C3
:10027A0029802075F002E52BA4249FF582E5F0344D
:10028A0007F583E493FE740193FFC3E52A9FF52AD9
:10029A00E5299EF5291205F07F02020793052BE551
:1002AA002BD39403403EE4F52B22E52B7004752BE7
:1002BA000322152B22E52CB40111E52B04FDAB2AF0
:1002CA00AA297F041204AE752C0222C37407952B47
:1002DA00242EF87608752C01227BFF7A0679BEADAA
:0402EA00361207BC05
:0102EE0022ED
:0507C500AF3FE4F53F29
:0107CA00220C
:0C0793008543408544418545428F3F224C
:1006E4008B438A4489458B408A4189428D3FAA4184
:1006F400A942AE02AF01EF4E6009E53F6005120169
:040704006D80EB22F7
:0907BC008D3F8B408A41894222E5
:0D078600754000754100754200E4F53F220A
:0A07A9003F065B4F666D7D077F6F12
:0307CB00012D00FD
:100696007580FF742E252DF8E6F590AF2D7401A810
:1006A60007088002C333D8FCF4F580052DE52DD369
:0706B60094074003E4F52D59
:0106BD00221A
:10042E000202EFE493A3F8E493A34003F68001F2F3
:10043E0008DFF48029E493A3F85407240CC8C333CF
:10044E00C4540F4420C8834004F456800146F6DF9E
:10045E00E4800B01020408102040809007CBE47E5C
:10046E00019360BCA3FF543F30E509541FFEE49393
:10047E00A360010ECF54C025E060A840B8E493A35A
:10048E00FAE493A3F8E493A3C8C582C8CAC583CA85
:10049E00F0A3C8C582C8CAC583CADFE9DEE780BE3D
:0107CE00002A
:10000E00BB010689828A83E0225002E722BBFE02F0
:09001E00E32289828A83E4932223
:10002700BB010CE58229F582E5833AF583E022508E
:1000370006E92582F8E622BBFE06E92582F8E222D8
:0D004700E58229F582E5833AF583E49322F2
:10005400BB010689828A83F0225002F722BBFE018B
:02006400F32285
:10006600BC000BBE0029EF8DF084FFADF022E4CC7E
:10007600F875F008EF2FFFEE33FEEC33FCEE9DEC47
:10008600984005FCEE9DFE0FD5F0E9E4CEFD22ED8D
:10009600F8F5F0EE8420D21CFEADF075F008EF2FD7
:1000A600FFED33FD4007985006D5F0F222C398FDC8
:0500B6000FD5F0EA2265
:1000BB00BB010A89828A83E0F5F0A3E02250068710
:1000CB00F009E71922BBFE07E3F5F009E3192289D2
:0B00DB00828A83E493F5F07401932205
:1000E600BB0110E58229F582E5833AF583E0F5F058
:1000F600A3E0225009E92582F886F008E622BBFE35
:100106000AE92582F8E2F5F008E222E5832AF5837A
:08011600E993F5F0A3E993223F
:10011E00BB010A89828A83F0E5F0A3F0225006F72C
:0F012E0009A7F01922BBFE06F3E5F009F3192229
:10013D00BB010DE58229F582E5833AF58302017C49
:10014D005007E92582F8020173BBFE07E92582F805
:10015D00020185E58229F582E5833AF58302018E58
:06016D008A838982E4731D
:09017300E6FB08E6FA08E6F922B1
:09017C00E0FBA3E0FAA3E0F92284
:09018500E2FB08E2FA08E2F922AB
:0C018E00E493FB740193FA740293F922CD
:00000001FF
